:040000000DEF00F010
:040008009FEF08F06E
:06001800FF0024EF09F0D7
:10100000001010111213141516171819191A1B1B9A
:101010001C1D1D1E1E1E1F1F1F1F1F1F1F1F1F1EEB
:101020001E1E1D1D1C1B1B1A19191817161514132B
:10103000121110100F0E0D0C0B0A090807060605F9
:10104000040403020201010100000000000000008E
:101050000001010102020304040506060708090A4B
:071060000B0C0D0E0F0F0039
:10106800000EBE6E000EBD6E000EBA6E000EBB6E98
:10107800000EBC6E070EC66EC268C368FB0EC46E57
:10108800C5683A01706960695069070E806F4069E8
:10109800000E716F000E816F000E516F000E416FD0
:1010A800000E616F000E5A6F000E5B6F000E6A6FC4
:1010B800000E6B6F000E7A6F000E7B6F000E826F52
:1010C800000E426F000E526F000E626F000E726FBC
:1010D8004369536963697369070E836F4469546987
:1010E800646974690F0E846F090E126F1200FDECAB
:1010F80008F0C494D28E010E0724F66EF76A100E1B
:10110800F722F86A000EF8220800F55039EC09F0C9
:10111800072A640E076493EF08F095EF08F097EF3D
:1011280008F0000E076E0D0EE82EFED700F07FEFD8
:1011380008F00DEF00F06F00E8FF01F06F00ECFF22
:1011480002F0390194A5ABEF08F0ADEF08F0B6EF67
:1011580008F0A4A5B2EF08F0B4EF08F0B6EF08F075
:10116800BDEC08F060000BF0FBFF600007F0FAFF31
:1011780011003901A49505500610D8B4C6EF08F03F
:10118800C8EF08F0D4EF08F002D8D4EF08F0050053
:10119800FA6E0550FD6E0650FE6EFF6AFA50120098
:1011A8001200010EAE6E000EAD6E000EAF6E090E8F
:1011B800AB6E000EAA6E3901A4959485800E036E5D
:1011C800120E046E34EC09F0A00EAC6E1200000E84
:1011D8003901C06F000EC16F000EC26F000EC36FE1
:1011E800000EC46F000EC56F000EC66F000EC76FED
:1011F80012003EEC09F0EBEC08F034EC08F018ECC7
:1012080009F00CEC09F02EEC09F0D5EC08F012000E
:101218009C0E7E6E040E7D6EC00E7C6E3F015E518C
:10122800FC0B01095E6F1200610E3901D96F000EC7
:10123800DB6F000EDD6F060EDF6F000EDE6F120033
:10124800076A080ED56E000ED66E000ED76E000126
:101258007BEF08F0800E3E019E6F060E9C6F120019
:1012680003C005F004C006F01200036E60000FF022
:0A1278009CFE1200D29A1200120030
:020000040030CA
:0A000000ECFFF7FF9FFFFFFFFFFF7B
:00000001FF
